{
  "_format": "hh-sol-artifact-1",
  "contractName": "TaskContract",
  "sourceName": "contracts/TaskContract.sol",
  "abi": [
    {
      "anonymous": false,
      "inputs": [
        {
          "indexed": false,
          "internalType": "address",
          "name": "recipent",
          "type": "address"
        },
        {
          "indexed": false,
          "internalType": "uint256",
          "name": "taskId",
          "type": "uint256"
        }
      ],
      "name": "AddTask",
      "type": "event"
    },
    {
      "anonymous": false,
      "inputs": [
        {
          "indexed": false,
          "internalType": "uint256",
          "name": "taskId",
          "type": "uint256"
        }
      ],
      "name": "DeleteTask",
      "type": "event"
    },
    {
      "inputs": [
        {
          "internalType": "string",
          "name": "taskText",
          "type": "string"
        }
      ],
      "name": "addTask",
      "outputs": [],
      "stateMutability": "nonpayable",
      "type": "function"
    },
    {
      "inputs": [
        {
          "internalType": "uint256",
          "name": "taskId",
          "type": "uint256"
        }
      ],
      "name": "deleteTask",
      "outputs": [],
      "stateMutability": "nonpayable",
      "type": "function"
    },
    {
      "inputs": [],
      "name": "getMyTasks",
      "outputs": [
        {
          "components": [
            {
              "internalType": "uint256",
              "name": "id",
              "type": "uint256"
            },
            {
              "internalType": "string",
              "name": "taskText",
              "type": "string"
            },
            {
              "internalType": "bool",
              "name": "isDeleted",
              "type": "bool"
            }
          ],
          "internalType": "struct TaskContract.Task[]",
          "name": "",
          "type": "tuple[]"
        }
      ],
      "stateMutability": "view",
      "type": "function"
    }
  ],
  "bytecode": "0x608060405234801561001057600080fd5b50610de8806100206000396000f3fe608060405234801561001057600080fd5b50600436106100415760003560e01c8063560f31921461004657806367238562146100625780636e13f8181461007e575b600080fd5b610060600480360381019061005b9190610601565b61009c565b005b61007c60048036038101906100779190610774565b61017b565b005b61008661029e565b6040516100939190610978565b60405180910390f35b3373ffffffffffffffffffffffffffffffffffffffff166001600083815260200190815260200160002060009054906101000a900473ffffffffffffffffffffffffffffffffffffffff1673ffffffffffffffffffffffffffffffffffffffff1603610178576001600082815481106101185761011761099a565b5b906000526020600020906003020160020160006101000a81548160ff0219169083151502179055507f8c2dccd1e8cc953301e21aa9acd0c9c15ed4464a558ed394b00c243d523eb5388160405161016f91906109d8565b60405180910390a15b50565b600080805490509050600060405180606001604052808381526020018481526020016000151581525090806001815401808255809150506001900390600052602060002090600302016000909190919091506000820151816000015560208201518160010190816101ec9190610bff565b5060408201518160020160006101000a81548160ff0219169083151502179055505050336001600083815260200190815260200160002060006101000a81548173ffffffffffffffffffffffffffffffffffffffff021916908373ffffffffffffffffffffffffffffffffffffffff1602179055507f1f54e1ba1832d428fbd7e7792beaf62b1fc5a382c207ffd614209c1413e94fda3382604051610292929190610d12565b60405180910390a15050565b60606000808054905067ffffffffffffffff8111156102c0576102bf610649565b5b6040519080825280602002602001820160405280156102f957816020015b6102e6610594565b8152602001906001900390816102de5790505b5090506000805b6000805490508110156104da573373ffffffffffffffffffffffffffffffffffffffff166001600083815260200190815260200160002060009054906101000a900473ffffffffffffffffffffffffffffffffffffffff1673ffffffffffffffffffffffffffffffffffffffff161480156103b15750600015156000828154811061038e5761038d61099a565b5b906000526020600020906003020160020160009054906101000a900460ff161515145b156104c757600081815481106103ca576103c961099a565b5b9060005260206000209060030201604051806060016040529081600082015481526020016001820180546103fd90610a22565b80601f016020809104026020016040519081016040528092919081815260200182805461042990610a22565b80156104765780601f1061044b57610100808354040283529160200191610476565b820191906000526020600020905b81548152906001019060200180831161045957829003601f168201915b505050505081526020016002820160009054906101000a900460ff1615151515815250508383815181106104ad576104ac61099a565b5b602002602001018190525081806104c390610d6a565b9250505b80806104d290610d6a565b915050610300565b5060008167ffffffffffffffff8111156104f7576104f6610649565b5b60405190808252806020026020018201604052801561053057816020015b61051d610594565b8152602001906001900390816105155790505b50905060005b8281101561058a578381815181106105515761055061099a565b5b602002602001015182828151811061056c5761056b61099a565b5b6020026020010181905250808061058290610d6a565b915050610536565b5080935050505090565b604051806060016040528060008152602001606081526020016000151581525090565b6000604051905090565b600080fd5b600080fd5b6000819050919050565b6105de816105cb565b81146105e957600080fd5b50565b6000813590506105fb816105d5565b92915050565b600060208284031215610617576106166105c1565b5b6000610625848285016105ec565b91505092915050565b600080fd5b600080fd5b6000601f19601f8301169050919050565b7f4e487b7100000000000000000000000000000000000000000000000000000000600052604160045260246000fd5b61068182610638565b810181811067ffffffffffffffff821117156106a05761069f610649565b5b80604052505050565b60006106b36105b7565b90506106bf8282610678565b919050565b600067ffffffffffffffff8211156106df576106de610649565b5b6106e882610638565b9050602081019050919050565b82818337600083830152505050565b6000610717610712846106c4565b6106a9565b90508281526020810184848401111561073357610732610633565b5b61073e8482856106f5565b509392505050565b600082601f83011261075b5761075a61062e565b5b813561076b848260208601610704565b91505092915050565b60006020828403121561078a576107896105c1565b5b600082013567ffffffffffffffff8111156107a8576107a76105c6565b5b6107b484828501610746565b91505092915050565b600081519050919050565b600082825260208201905092915050565b6000819050602082019050919050565b6107f2816105cb565b82525050565b600081519050919050565b600082825260208201905092915050565b60005b83811015610832578082015181840152602081019050610817565b60008484015250505050565b6000610849826107f8565b6108538185610803565b9350610863818560208601610814565b61086c81610638565b840191505092915050565b60008115159050919050565b61088c81610877565b82525050565b60006060830160008301516108aa60008601826107e9565b50602083015184820360208601526108c2828261083e565b91505060408301516108d76040860182610883565b508091505092915050565b60006108ee8383610892565b905092915050565b6000602082019050919050565b600061090e826107bd565b61091881856107c8565b93508360208202850161092a856107d9565b8060005b85811015610966578484038952815161094785826108e2565b9450610952836108f6565b925060208a0199505060018101905061092e565b50829750879550505050505092915050565b600060208201905081810360008301526109928184610903565b905092915050565b7f4e487b7100000000000000000000000000000000000000000000000000000000600052603260045260246000fd5b6109d2816105cb565b82525050565b60006020820190506109ed60008301846109c9565b92915050565b7f4e487b7100000000000000000000000000000000000000000000000000000000600052602260045260246000fd5b60006002820490506001821680610a3a57607f821691505b602082108103610a4d57610a4c6109f3565b5b50919050565b60008190508160005260206000209050919050565b60006020601f8301049050919050565b600082821b905092915050565b600060088302610ab57fffffffffffffffffffffffffffffffffffffffffffffffffffffffffffffffff82610a78565b610abf8683610a78565b95508019841693508086168417925050509392505050565b6000819050919050565b6000610afc610af7610af2846105cb565b610ad7565b6105cb565b9050919050565b6000819050919050565b610b1683610ae1565b610b2a610b2282610b03565b848454610a85565b825550505050565b600090565b610b3f610b32565b610b4a818484610b0d565b505050565b5b81811015610b6e57610b63600082610b37565b600181019050610b50565b5050565b601f821115610bb357610b8481610a53565b610b8d84610a68565b81016020851015610b9c578190505b610bb0610ba885610a68565b830182610b4f565b50505b505050565b600082821c905092915050565b6000610bd660001984600802610bb8565b1980831691505092915050565b6000610bef8383610bc5565b9150826002028217905092915050565b610c08826107f8565b67ffffffffffffffff811115610c2157610c20610649565b5b610c2b8254610a22565b610c36828285610b72565b600060209050601f831160018114610c695760008415610c57578287015190505b610c618582610be3565b865550610cc9565b601f198416610c7786610a53565b60005b82811015610c9f57848901518255600182019150602085019450602081019050610c7a565b86831015610cbc5784890151610cb8601f891682610bc5565b8355505b6001600288020188555050505b505050505050565b600073ffffffffffffffffffffffffffffffffffffffff82169050919050565b6000610cfc82610cd1565b9050919050565b610d0c81610cf1565b82525050565b6000604082019050610d276000830185610d03565b610d3460208301846109c9565b9392505050565b7f4e487b7100000000000000000000000000000000000000000000000000000000600052601160045260246000fd5b6000610d75826105cb565b91507fffffffffffffffffffffffffffffffffffffffffffffffffffffffffffffffff8203610da757610da6610d3b565b5b60018201905091905056fea2646970667358221220075749f3caf5e4f5982de92a8f5b4e79dc4928bb790f22c0a313e67997fd847064736f6c63430008110033",
  "linkReferences": {},
  "deployedLinkReferences": {}
}